:100000000C94A7000C94C4000C9415080C94C40024
:100010000C94C4000C94C4000C94C4000C94C40050
:100020000C94C4000C94C4000C945F070C942C072F
:100030000C94C4000C94C4000C94C4000C94C40030
:100040000C94C4000C94C4000C94C4000C94C40020
:100050000C94C40000407A10F35A00A0724E1809A4
:100060000010A5D4E80000E87648170000E40B541F
:10007000020000CA9A3B000000E1F50500008096EE
:100080009800000040420F000000A0860100000020
:10009000102700000000E8030000000064000000DA
:1000A00000000A00000000000100000000002C76A3
:1000B000D888DC674F0823DFC1DFAE59E1B1B796BE
:1000C000E5E3E453C63AE651997696E8E6C284261B
:1000D000EB898C9B62ED407C6FFCEFBC9C9F40F2F7
:1000E000BAA56FA5F490055A2AF75C936B6CF96773
:1000F0006DC11BFCE0E40D47FEF520E6B500D0ED38
:10010000902E0300943577050080841E080000209F
:100110004E0A000000C80C333333330F986E12833D
:100120001141EF8D2114893BE65516CFFEE6DB1811
:10013000D1844B381BF77C1D901DA4BBE4242032D6
:1001400084725E228100C9F124ECA1E53D271124CF
:100150001FBECFE5D8E0DEBFCDBF11E0A0E6B0E026
:10016000EEEEFEE202C005900D92A439B107D9F778
:1001700011E0A4E9B1E001C01D92AB39B107E1F78C
:100180000E94BE140C9475170C940000EF92FF921D
:100190000F931F937B018C0120E030E040E05FE48F
:1001A0000E94C60388238CF0C801B70120E030E02C
:1001B00040E05FE40E943E020E9426049B01AC01E5
:1001C000205030404040504806C0C801B7010E944E
:1001D00026049B01AC01B901CA011F910F91FF9048
:1001E000EF900895A0E0B0E0E8EFF0E00C94E314A5
:1001F000DC012B01FA019C91923008F439C1EB012A
:100200008881823008F433C1943069F4843009F075
:100210002FC111969C9111978981981709F428C1D3
:10022000A0E6B0E025C1843009F421C18230A9F4F0
:10023000923009F01DC19A01AD0188E0EA010990F0
:10024000AE01E90109929E018150C1F7E201898165
:1002500011969C918923818308C1923009F407C1CA
:1002600012962D903C901397EB018A819B811496F6
:10027000AD90BD90CD90DC901797EC80FD800E8105
:100280001F819101281B390BB90137FF04C0662774
:100290007727621B730B603271050CF061C0121678
:1002A00013066CF537014801062E04C09694879416
:1002B000779467940A94D2F721E030E040E050E070
:1002C00004C0220F331F441F551F6A95D2F72150D7
:1002D0003040404050402E213F21402351232115E2
:1002E00031054105510521F021E030E040E050E0CA
:1002F00079018A01E628F728082919293CC0232B0F
:10030000D1F1260E371E35014601062E04C0969403
:100310008794779467940A94D2F721E030E040E024
:1003200050E004C0220F331F441F551F6A95D2F7B7
:1003300021503040404050402A213B214C215D213A
:10034000211531054105510521F021E030E040E063
:1003500050E059016A01A628B728C828D9280BC03F
:10036000821593052CF01C01AA24BB24650103C04F
:10037000EE24FF24870111969C91D20111968C9155
:10038000981709F445C0992339F0A80197012A1953
:100390003B094C095D0906C0A60195012E193F09CC
:1003A000400B510B57FD08C01182338222822483F7
:1003B0003583468357831DC081E081833382228247
:1003C00088279927DC01821B930BA40BB50B848330
:1003D0009583A683B7830DC0220F331F441F551F7B
:1003E0002483358346835783828193810197938346
:1003F00082832481358146815781DA01C9010197C1
:10040000A109B1098F5F9F4FAF4FBF4328F30BC0C6
:10041000918333822282EA0CFB1C0C1D1D1DE48299
:10042000F5820683178383E08083248135814681AA
:10043000578157FF1AC0C901AA2797FDA095BA2F67
:1004400081709070A070B07056954795379527953C
:10045000822B932BA42BB52B84839583A683B78300
:1004600082819381019693838283DF0101C0D2014F
:10047000CD01CDB7DEB7E2E10C94FF14A0E2B0E00D
:10048000E4E4F2E00C94EF1469837A838B839C8319
:100490002D833E834F835887E9E0EE2EF12CEC0E3E
:1004A000FD1ECE010196B7010E9417068E010F5E58
:1004B0001F4FCE010596B8010E9417068A8991E068
:1004C00089278A8BC701B801AE01475E5F4F0E9442
:1004D000F2000E944205A096E6E00C940B15A0E203
:1004E000B0E0E5E7F2E00C94EF1469837A838B8344
:1004F0009C832D833E834F835887F9E0EF2EF12CA8
:10050000EC0EFD1ECE010196B7010E9417068E016A
:100510000F5E1F4FCE010596B8010E941706C70156
:10052000B801AE01475E5F4F0E94F2000E94420593
:10053000A096E6E00C940B15A0E2B0E0E2EAF2E04F
:100540000C94E31469837A838B839C832D833E838D
:100550004F835887CE010196BE01675F7F4F0E948F
:100560001706CE010596BE016F5E7F4F0E941706EB
:100570009985923088F089898230C8F0943019F4D6
:10058000823051F404C0843029F4923081F480E642
:1005900090E0C6C0923049F420E09A858A89981389
:1005A00021E02A87CE010996BBC0823049F420E0C1
:1005B0009A858A89981321E02A8BCE014196B0C092
:1005C0002D843E844F8458886D887E888F88988CCF
:1005D000EE24FF248701AA24BB24650140E050E0FB
:1005E00060E070E0E0E0F0E0C10181709070892B84
:1005F000E9F0E60CF71C081D191D9A01AB012A0D44
:100600003B1D4C1D5D1D80E090E0A0E0B0E0E614D5
:10061000F7040805190520F481E090E0A0E0B0E0BF
:10062000BA01A901480F591F6A1F7B1FAA0CBB1CE6
:10063000CC1CDD1C97FE08C081E090E0A0E0B0E09B
:10064000A82AB92ACA2ADB2A3196E032F10549F0F4
:10065000660C771C881C991C5694479437942794F1
:10066000C3CFFA85EA892B893C898B859C85280F25
:10067000391F2E5F3F4F17C0CA0181709070892BC0
:1006800061F016950795F794E79480E090E0A0E07C
:10069000B0E8E82AF92A0A2B1B2B7695679557951F
:1006A00047952F5F3F4F77FDE7CF0CC0440F551F95
:1006B000661F771F17FD4160EE0CFF1C001F111F06
:1006C00021503040403090E0590790E0690790E4B5
:1006D000790760F32B8F3C8FDB01CA018F77907015
:1006E000A070B07080349105A105B10561F447FD9B
:1006F0000AC0E114F1040105110529F0405C5F4FC7
:100700006F4F7F4F40781A8EFE1711F081E08A8F6D
:100710004D8F5E8F6F8F78A383E0898FCE014996CE
:100720000E944205A096E2E10C94FF14A8E1B0E01B
:10073000ECE9F3E00C94EF1469837A838B839C8358
:100740002D833E834F83588789E0E82EF12CEC0EF1
:10075000FD1ECE010196B7010E9417068E010F5EA5
:100760001F4FCE010596B8010E9417068985823079
:1007700040F08989823028F0C701B8010E948F06B5
:1007800001C08FEF6896E6E00C940B15A8E1B0E08D
:10079000ECECF3E00C94EF1469837A838B839C83F5
:1007A0002D833E834F83588789E0E82EF12CEC0E91
:1007B000FD1ECE010196B7010E9417068E010F5E45
:1007C0001F4FCE010596B8010E9417068985823019
:1007D00040F08989823028F0C701B8010E948F0655
:1007E00001C08FEF6896E6E00C940B15A8E1B0E02D
:1007F000ECEFF3E00C94EF1469837A838B839C8392
:100800002D833E834F83588789E0E82EF12CEC0E30
:10081000FD1ECE010196B7010E9417068E010F5EE4
:100820001F4FCE010596B8010E94170689858230B8
:1008300040F08989823028F0C701B8010E948F06F4
:1008400001C081E06896E6E00C940B15ACE0B0E0E6
:10085000ECE2F4E00C94F31469837A838B839C8339
:10086000CE010196BE016B5F7F4F0E9417068D81FE
:10087000823061F1823050F1843021F48E818823FE
:1008800051F12EC02F81388537FD20C06E812F3168
:1008900031051CF06623F9F023C08EE190E0821B45
:1008A000930B29853A854B855C8504C05695479501
:1008B000379527958A95D2F76623B1F050954095E4
:1008C000309521953F4F4F4F5F4F0EC020E030E0F5
:1008D00040E050E009C02FEF3FEF4FEF5FE704C06B
:1008E00020E030E040E050E8B901CA012C96E2E097
:1008F0000C940F15A8E0B0E0E0E8F4E00C94EB14E1
:100900007B018C01611571058105910519F482E067
:10091000898360C083E089838EE1C82ED12CDC827C
:10092000CB82ED82FE820F831887C801B7010E9437
:10093000F304FC013197F7FF3BC0222733272E1B1E
:100940003F0B57016801022E04C0D694C794B79498
:10095000A7940A94D2F740E050E060E070E081E0B4
:1009600090E0A0E0B0E004C0880F991FAA1FBB1F51
:100970002A95D2F70197A109B1098E219F21A023C1
:10098000B1230097A105B10521F041E050E060E0FE
:1009900070E04A295B296C297D294D835E836F8332
:1009A00078878EE190E08E1B9F0B9C838B8312C017
:1009B000309781F00E2E04C0EE0CFF1C001F111F9B
:1009C0000A94D2F7ED82FE820F831887CE1ADF0ACF
:1009D000DC82CB821A82CE0101960E9442052896C3
:1009E000EAE00C940715EF92FF920F931F937B019F
:1009F0008C0180E0E81680E0F80681E0080780E0DE
:100A0000180788F48FEFE816F1040105110531F09D
:100A100028F088E090E0A0E0B0E017C080E090E02F
:100A2000A0E0B0E012C080E0E81680E0F80680E0C8
:100A3000080781E0180728F088E190E0A0E0B0E026
:100A400004C080E190E0A0E0B0E020E230E040E0CF
:100A500050E0281B390B4A0B5B0B04C01695079519
:100A6000F794E7948A95D2F7F701E859FF4F808110
:100A7000281B310941095109C9011F910F91FF90AC
:100A8000EF900895DF92EF92FF920F931F93FC0176
:100A9000E480F58006811781D1808081823048F41E
:100AA00080E090E0A0E1B0E0E82AF92A0A2B1B2BB5
:100AB000A5C0843009F49FC0823021F4EE24FF24C5
:100AC000870105C0E114F1040105110519F4E0E006
:100AD000F0E096C0628173819FEF623879070CF075
:100AE0005BC022E83FEF261B370B2A3131052CF083
:100AF00020E030E040E050E02AC0B801A701022E1B
:100B000004C076956795579547950A94D2F781E08A
:100B100090E0A0E0B0E004C0880F991FAA1FBB1F9F
:100B20002A95D2F70197A109B1098E219F21A0230F
:100B3000B1230097A105B10521F081E090E0A0E08C
:100B4000B0E09A01AB01282B392B4A2B5B2BDA0141
:100B5000C9018F779070A070B07080349105A105A5
:100B6000B10539F427FF09C0205C3F4F4F4F5F4F5D
:100B700004C0215C3F4F4F4F5F4FE0E0F0E020307A
:100B8000A0E03A07A0E04A07A0E45A0710F0E1E02D
:100B9000F0E079018A0127C06038710564F5FB0136
:100BA000E158FF4FD801C7018F779070A070B070E7
:100BB00080349105A105B10539F4E7FE0DC080E44C
:100BC00090E0A0E0B0E004C08FE390E0A0E0B0E0EF
:100BD000E80EF91E0A1F1B1F17FF05C01695079583
:100BE000F794E794319687E016950795F794E79484
:100BF0008A95D1F705C0EE24FF248701EFEFF0E0DE
:100C00006E2F679566276795902F9F77D794DD2481
:100C1000D7948E2F8695492F462B582F5D29B701E3
:100C2000CA011F910F91FF90EF90DF900895FC0192
:100C3000DB01408151812281622F6F7770E0221F9A
:100C40002227221F9381892F880F822B282F30E0A3
:100C5000991F9927991F11969C931197211531057A
:100C6000A9F5411551056105710511F482E037C000
:100C700082E89FEF13969C938E9312979A01AB0193
:100C800067E0220F331F441F551F6A95D1F783E099
:100C90008C930DC0220F331F441F551F12968D9148
:100CA0009C911397019713969C938E9312972030E3
:100CB00080E0380780E0480780E4580758F314962E
:100CC0002D933D934D935C93179708952F3F3105D6
:100CD00079F4411551056105710519F484E08C938F
:100CE000089564FF03C081E08C9312C01C9210C071
:100CF0002F57304013963C932E93129783E08C939A
:100D000087E0440F551F661F771F8A95D1F77064DF
:100D100014964D935D936D937C93179708951F934D
:100D2000DC01FB019C91923008F447C08081823045
:100D300008F443C0943051F411961C91843099F515
:100D40008181682F70E0611B71093FC0843021F000
:100D5000923031F48230B9F18181882389F12DC03C
:100D600011961C9111978230F1F081811817D9F4F6
:100D700012962D913C91139782819381821793074C
:100D800094F028173907BCF014968D919D910D9021
:100D9000BC91A02D248135814681578128173907C0
:100DA0004A075B0718F4112341F00AC08217930722
:100DB000A407B50740F4112319F061E070E005C005
:100DC0006FEF7FEF02C060E070E0CB011F910895EC
:100DD000DF93CF9300D00F92CDB7DEB789836A83BC
:100DE0004B838981882391F4A3E5B0E0E3E5F0E04B
:100DF00080818F7B8C93A3E5B0E0E3E5F0E0808118
:100E0000877F8C93E2E5F0E08B818083AFE5B0E0F3
:100E1000EFE5F0E0808180688C93A9E5B0E0E9E53A
:100E2000F0E0808181608C930F900F900F90CF91B4
:100E3000DF910895DF93CF9300D0CDB7DEB79A83CB
:100E4000898389819A8190939501809394010F9071
:100E50000F90CF91DF9108951F920F920FB60F92CE
:100E600011242F933F934F935F936F937F938F93AF
:100E70009F93AF93BF93EF93FF93DF93CF93CDB740
:100E8000DEB78091940190919501009729F0E0914F
:100E90009401F09195010995CF91DF91FF91EF9128
:100EA000BF91AF919F918F917F916F915F914F9182
:100EB0003F912F910F900FBE0F901F9018951F928A
:100EC0000F920FB60F9211242F933F934F935F937E
:100ED0006F937F938F939F93AF93BF93EF93FF9302
:100EE000DF93CF93CDB7DEB78091960190919701B4
:100EF000009729F0E0919601F09197010995CF9123
:100F0000DF91FF91EF91BF91AF919F918F917F9171
:100F10006F915F914F913F912F910F900FBE0F9066
:100F20001F901895DF93CF9300D0CDB7DEB79A838B
:100F3000898389819A8190939701809396010F907C
:100F40000F90CF91DF910895DF93CF930F92CDB79C
:100F5000DEB789838981813079F4A5E5B0E0E5E5E4
:100F6000F0E0808188608C93A5E5B0E0E5E5F0E0F5
:100F700080818B7F8C9335C08981882379F4A5E5A6
:100F8000B0E0E5E5F0E0808188608C93A5E5B0E015
:100F9000E5E5F0E0808184608C9323C08981833013
:100FA00079F4A5E5B0E0E5E5F0E08081877F8C93FA
:100FB000A5E5B0E0E5E5F0E080818B7F8C9311C082
:100FC0008981823071F4A5E5B0E0E5E5F0E080814B
:100FD000877F8C93A5E5B0E0E5E5F0E08081846053
:100FE0008C93ABE5B0E0EBE5F0E0808180688C931A
:100FF000AFE5B0E0EFE5F0E0808180688C930F9082
:10100000CF91DF910895DF93CF9300D0CDB7DEB7B6
:101010009A83898389819A81909399018093980119
:101020000F900F90CF91DF9108951F920F920FB6FE
:101030000F9211242F933F934F935F936F937F935E
:101040008F939F93AF93BF93EF93FF93DF93CF93D0
:10105000CDB7DEB78091980190919901009729F062
:10106000E0919801F09199010995CF91DF91FF915D
:10107000EF91BF91AF919F918F917F916F915F9110
:101080004F913F912F910F900FBE0F901F90189589
:10109000DF93CF93CDB7DEB728970FB6F894DEBFB6
:1010A0000FBECDBF89836A834B838A81883008F065
:1010B000F6C08B81882309F077C08981282F30E022
:1010C00038872F838F8198858130910559F12F8141
:1010D0003885223031052CF48F819885009769F08E
:1010E00060C02F8138852230310589F18F81988544
:1010F0008330910509F440C054C0AAE3B0E0EAE3AC
:10110000F0E08081482F8A81282F30E081E090E054
:10111000022E02C0880F991F0A94E2F7809584235B
:101120008C93BBC0A7E3B0E0E7E3F0E08081482FF9
:101130008A81282F30E081E090E0022E02C0880FE3
:10114000991F0A94E2F7809584238C93A6C0A4E3A8
:10115000B0E0E4E3F0E08081482F8A81282F30E07E
:1011600081E090E0022E02C0880F991F0A94E2F7F6
:10117000809584238C9391C0A1E3B0E0E1E3F0E09B
:101180008081482F8A81282F30E081E090E0022E74
:1011900002C0880F991F0A94E2F7809584238C93EC
:1011A0007CC091E09E837DC08B81813009F072C04C
:1011B0008981282F30E03D832C838C819D81813073
:1011C000910549F12C813D81223031052CF48C812F
:1011D0009D81009761F05BC02C813D8122303105FB
:1011E00071F18C819D8183309105E9F150C0AAE3B2
:1011F000B0E0EAE3F0E08081482F8A81282F30E0D8
:1012000081E090E0022E02C0880F991F0A94E2F755
:10121000842B8C9342C0A7E3B0E0E7E3F0E0808149
:10122000482F8A81282F30E081E090E0022E02C012
:10123000880F991F0A94E2F7842B8C932EC0A4E3A5
:10124000B0E0E4E3F0E08081482F8A81282F30E08D
:1012500081E090E0022E02C0880F991F0A94E2F705
:10126000842B8C931AC0A1E3B0E0E1E3F0E080812D
:10127000482F8A81282F30E081E090E0022E02C0C2
:10128000880F991F0A94E2F7842B8C9306C091E093
:101290009E8307C023E02E8304C01E8202C032E07A
:1012A0003E838E8128960FB6F894DEBF0FBECDBF69
:1012B000CF91DF910895DF93CF9300D000D00F92AC
:1012C000CDB7DEB789836A838981282F30E03D83DB
:1012D0002C838C819D8181309105D1F02C813D81C1
:1012E000223031052CF48C819D81009761F01FC064
:1012F0002C813D812230310581F08C819D818330AC
:10130000910581F014C0EAE3F0E08A81808312C085
:10131000E7E3F0E08A8180830DC0E4E3F0E08A81B6
:10132000808308C0E1E3F0E08A81808303C091E01C
:101330009B8301C01B828B810F900F900F900F90A9
:101340000F90CF91DF910895DF93CF93CDB7DEB7A4
:1013500028970FB6F894DEBF0FBECDBF89836A838E
:101360004B838A81883008F0F6C08B81882309F08E
:1013700077C08981282F30E038872F838F81988527
:101380008130910559F12F813885223031052CF4B7
:101390008F819885009769F060C02F813885223051
:1013A000310589F18F8198858330910509F440C01A
:1013B00054C0ABE3B0E0EBE3F0E08081482F8A81DA
:1013C000282F30E081E090E0022E02C0880F991FA4
:1013D0000A94E2F7809584238C93BBC0A8E3B0E025
:1013E000E8E3F0E08081482F8A81282F30E081E017
:1013F00090E0022E02C0880F991F0A94E2F78095B0
:1014000084238C93A6C0A5E3B0E0E5E3F0E08081FF
:10141000482F8A81282F30E081E090E0022E02C020
:10142000880F991F0A94E2F7809584238C9391C0CA
:10143000A2E3B0E0E2E3F0E08081482F8A81282F28
:1014400030E081E090E0022E02C0880F991F0A94DC
:10145000E2F7809584238C937CC091E09E837DC0CD
:101460008B81813009F072C08981282F30E03D8363
:101470002C838C819D818130910549F12C813D81A6
:10148000223031052CF48C819D81009761F05BC086
:101490002C813D812230310571F18C819D81833019
:1014A0009105E9F150C0ABE3B0E0EBE3F0E08081FF
:1014B000482F8A81282F30E081E090E0022E02C080
:1014C000880F991F0A94E2F7842B8C9342C0A8E3FB
:1014D000B0E0E8E3F0E08081482F8A81282F30E0F7
:1014E00081E090E0022E02C0880F991F0A94E2F773
:1014F000842B8C932EC0A5E3B0E0E5E3F0E080817F
:10150000482F8A81282F30E081E090E0022E02C02F
:10151000880F991F0A94E2F7842B8C931AC0A2E3D8
:10152000B0E0E2E3F0E08081482F8A81282F30E0AC
:1015300081E090E0022E02C0880F991F0A94E2F722
:10154000842B8C9306C091E09E8307C026E02E83F7
:1015500004C01E8202C032E03E838E8128960FB600
:10156000F894DEBF0FBECDBFCF91DF910895DF931A
:10157000CF9300D000D00F92CDB7DEB789836A83B6
:101580008981282F30E03D832C838C819D8181309F
:101590009105D1F02C813D81223031052CF48C81D4
:1015A0009D81009761F01FC02C813D812230310563
:1015B00081F08C819D818330910581F014C0EBE333
:1015C000F0E08A81808312C0E8E3F0E08A818083C2
:1015D0000DC0E5E3F0E08A81808308C0E2E3F0E03B
:1015E0008A81808303C091E09B8301C01B828B8131
:1015F0000F900F900F900F900F90CF91DF91089563
:10160000DF93CF93CDB7DEB727970FB6F894DEBF41
:101610000FBECDBF89836A835C834B838A81883008
:1016200008F076C08981282F30E03F832E834E81D9
:101630005F814130510559F18E819F818230910542
:1016400034F42E813F812115310569F05CC04E8153
:101650005F814230510579F18E819F818330910500
:1016600009F43DC050C0E9E3F0E08081282F30E06C
:101670008A81882F90E0A90102C0559547958A95E7
:10168000E2F7CA018170EB81FC8180833FC0E6E311
:10169000F0E08081282F30E08A81882F90E0A90136
:1016A00002C0559547958A95E2F7CA018170EB8192
:1016B000FC8180832BC0E3E3F0E08081282F30E0C1
:1016C0008A81882F90E0A90102C0559547958A9597
:1016D000E2F7CA018170EB81FC81808317C0E0E3EF
:1016E000F0E08081282F30E08A81882F90E0A901E6
:1016F00002C0559547958A95E2F7CA018170EB8142
:10170000FC81808303C051E05D8304C01D8202C060
:1017100082E08D838D8127960FB6F894DEBF0FBED1
:10172000CDBFCF91DF910895DF93CF9300D000D04C
:1017300000D0CDB7DEB789837B836A838A819B81A2
:10174000009709F440C08981282F30E03E832D8323
:101750008D819E8181309105E1F02D813E81223085
:1017600031052CF48D819E81009761F027C02D8179
:101770003E8122303105A1F08D819E81833091051B
:10178000B1F01CC0E9E3F0E08081EA81FB81808355
:1017900018C0E6E3F0E08081EA81FB81808311C01C
:1017A000E3E3F0E08081EA81FB8180830AC0E0E32B
:1017B000F0E08081EA81FB81808303C091E09C831B
:1017C00004C01C8202C025E02C838C8126960FB6B3
:1017D000F894DEBF0FBECDBFCF91DF910895DF93A8
:1017E000CF9300D000D0CDB7DEB789837B836A83E7
:1017F000EA81FB818081813049F5EA81FB81818129
:101800006FEF0E945B09EA81FB8121818981882F2A
:1018100090E0FC01EE58FE4F9081822F692F0E94CC
:10182000B70AEA81FB818281EA81FB819381692F7A
:1018300041E00E944808EA81FB818281EA81FB81C4
:101840009381692F41E00E94A40930C0EA81FB81A5
:101850008081882349F5EA81FB8181816FEF0E94B5
:101860005B09EA81FB8121818981882F90E0FC015D
:10187000E859FE4F9081822F692F0E94B70AEA81B2
:10188000FB818281EA81FB819381692F41E00E9483
:101890004808EA81FB818281EA81FB819381692F7B
:1018A00040E00E94A40902C01C8201C01C828C81FD
:1018B0000F900F900F900F90CF91DF910895DF93CD
:1018C000CF9300D000D00F92CDB7DEB79A83898333
:1018D0006B834C8329813A818B81B9010E94EF0B84
:1018E00029813A818C81B9010E94EF0B0F900F90F2
:1018F0000F900F900F90CF91DF910895DF93CF93CA
:1019000000D00F92CDB7DEB79A83898329813A81BF
:101910008AE0B9010E94EF0B0F900F900F90CF91CA
:10192000DF910895DF93CF93CDB7DEB727970FB63A
:10193000F894DEBF0FBECDBF9E838D83ED81FE8107
:1019400082818130D1F4ED81FE818081ED81FE8143
:101950009181692F41E00E9448088C838C81882303
:1019600069F5ED81FE818081ED81FE819181692F94
:1019700040E00E94A4098B8321C0ED81FE81828119
:101980008823D1F4ED81FE818081ED81FE819181FA
:10199000692F41E00E9448088A838A81882371F474
:1019A000ED81FE818081ED81FE819181692F41E091
:1019B0000E94A409898302C01F8202C081E08F8334
:1019C0008F8127960FB6F894DEBF0FBECDBFCF91A3
:1019D000DF910895DF93CF93CDB7DEB727970FB68A
:1019E000F894DEBF0FBECDBF9E838D83ED81FE8157
:1019F00082818130D1F4ED81FE818081ED81FE8193
:101A00009181692F41E00E9448088C838C81882352
:101A100069F5ED81FE818081ED81FE819181692FE3
:101A200041E00E94A4098B8321C0ED81FE81828167
:101A30008823D1F4ED81FE818081ED81FE81918149
:101A4000692F41E00E9448088A838A81882371F4C3
:101A5000ED81FE818081ED81FE819181692F40E0E1
:101A60000E94A409898302C01F8202C081E08F8383
:101A70008F8127960FB6F894DEBF0FBECDBFCF91F2
:101A8000DF910895DF93CF93CDB7DEB76F970FB691
:101A9000F894DEBF0FBECDBF8D8F7F8F6E8FEE8D22
:101AA000FF8D8081EE8DFF8D9381692F40E00E9434
:101AB000A409EE8DFF8D8181EE8DFF8D9481692FBC
:101AC00040E00E94A409EE8DFF8D86816D8D0E94FD
:101AD000B70AEE8DFF8D8281EE8DFF8D9581692F86
:101AE00041E00E94A40980E090E0A0E8BFE3898F74
:101AF0009A8FAB8FBC8F698D7A8D8B8D9C8D20E0FA
:101B000030E04AEF54E40E949C02DC01CB018D8B53
:101B10009E8BAF8BB88F6D897E898F89988D20E0E1
:101B200030E040E85FE30E94F60388232CF481E074
:101B300090E09C8B8B8B3FC06D897E898F89988DBF
:101B400020E03FEF4FE757E40E94960318164CF54C
:101B5000698D7A8D8B8D9C8D20E030E040E251E4E0
:101B60000E949C02DC01CB01BC01CD010E94C60099
:101B7000DC01CB019C8B8B8B0FC088EC90E09A8BA7
:101B8000898B89899A890197F1F79A8B898B8B893F
:101B90009C8901979C8B8B8B8B899C89009769F71B
:101BA00014C06D897E898F89988D0E94C600DC01E2
:101BB000CB019C8B8B8B8B899C89988B8F878F8596
:101BC00098890197F1F7988B8F87EE8DFF8D828131
:101BD000EE8DFF8D9581692F40E00E94A40980E081
:101BE00090E0A0E8BFE38B879C87AD87BE876B85BD
:101BF0007C858D859E8520E030E04AEF54E40E948C
:101C00009C02DC01CB018F839887A987BA876F81FB
:101C1000788589859A8520E030E040E85FE30E947E
:101C2000F60388232CF481E090E09E838D833FC0EF
:101C30006F81788589859A8520E03FEF4FE757E4EB
:101C40000E94960318164CF56B857C858D859E85C4
:101C500020E030E040E251E40E949C02DC01CB0134
:101C6000BC01CD010E94C600DC01CB019E838D83A7
:101C70000FC088EC90E09C838B838B819C810197C3
:101C8000F1F79C838B838D819E8101979E838D8349
:101C90008D819E81009769F714C06F817885898551
:101CA0009A850E94C600DC01CB019E838D838D81C5
:101CB0009E819A83898389819A810197F1F79A831A
:101CC00089836F960FB6F894DEBF0FBECDBFCF915C
:101CD000DF910895DF93CF93CDB7DEB76F970FB63F
:101CE000F894DEBF0FBECDBF8D8F7F8F6E8FEE8DD0
:101CF000FF8D8081EE8DFF8D9381692F41E00E94E1
:101D0000A409EE8DFF8D8181EE8DFF8D9481692F69
:101D100040E00E94A409EE8DFF8D86816D8D0E94AA
:101D2000B70AEE8DFF8D8281EE8DFF8D9581692F33
:101D300041E00E94A40980E090E0A0E8BFE3898F21
:101D40009A8FAB8FBC8F698D7A8D8B8D9C8D20E0A7
:101D500030E04AEF54E40E949C02DC01CB018D8B01
:101D60009E8BAF8BB88F6D897E898F89988D20E08F
:101D700030E040E85FE30E94F60388232CF481E022
:101D800090E09C8B8B8B3FC06D897E898F89988D6D
:101D900020E03FEF4FE757E40E94960318164CF5FA
:101DA000698D7A8D8B8D9C8D20E030E040E251E48E
:101DB0000E949C02DC01CB01BC01CD010E94C60047
:101DC000DC01CB019C8B8B8B0FC088EC90E09A8B55
:101DD000898B89899A890197F1F79A8B898B8B89ED
:101DE0009C8901979C8B8B8B8B899C89009769F7C9
:101DF00014C06D897E898F89988D0E94C600DC0190
:101E0000CB019C8B8B8B8B899C89988B8F878F8543
:101E100098890197F1F7988B8F87EE8DFF8D8281DE
:101E2000EE8DFF8D9581692F40E00E94A40980E02E
:101E300090E0A0E8BFE38B879C87AD87BE876B856A
:101E40007C858D859E8520E030E04AEF54E40E9439
:101E50009C02DC01CB018F839887A987BA876F81A9
:101E6000788589859A8520E030E040E85FE30E942C
:101E7000F60388232CF481E090E09E838D833FC09D
:101E80006F81788589859A8520E03FEF4FE757E499
:101E90000E94960318164CF56B857C858D859E8572
:101EA00020E030E040E251E40E949C02DC01CB01E2
:101EB000BC01CD010E94C600DC01CB019E838D8355
:101EC0000FC088EC90E09C838B838B819C81019771
:101ED000F1F79C838B838D819E8101979E838D83F7
:101EE0008D819E81009769F714C06F8178858985FF
:101EF0009A850E94C600DC01CB019E838D838D8173
:101F00009E819A83898389819A810197F1F79A83C7
:101F100089836F960FB6F894DEBF0FBECDBFCF9109
:101F2000DF910895DF93CF93CDB7DEB7EA970FB671
:101F3000F894DEBF0FBECDBF9AAF89AFE9ADFAAD61
:101F40008081E9ADFAAD9381692F41E00E94480894
:101F5000E9ADFAAD8181E9ADFAAD9481692F41E037
:101F60000E944808E9ADFAAD8281E9ADFAAD9581EC
:101F7000692F41E00E944808E9ADFAAD86816FEF14
:101F80000E945B0980E090E0A0E2B2E48DAB9EABE2
:101F9000AFABB8AF6DA97EA98FA998AD20E030E0B6
:101FA0004AEF54E40E949C02DC01CB0189AB9AAB5E
:101FB000ABABBCAB69A97AA98BA99CA920E030E0A6
:101FC00040E85FE30E94F60388232CF481E090E070
:101FD00098AB8FA73FC069A97AA98BA99CA920E0DB
:101FE0003FEF4FE757E40E94960318164CF56DA992
:101FF0007EA98FA998AD20E030E040E251E40E9434
:102000009C02DC01CB01BC01CD010E94C600DC01B9
:10201000CB0198AB8FA70FC088EC90E09EA78DA74F
:102020008DA59EA50197F1F79EA78DA78FA598A9CD
:10203000019798AB8FA78FA598A9009769F714C04F
:1020400069A97AA98BA99CA90E94C600DC01CB01D1
:1020500098AB8FA78FA598A99CA78BA78BA59CA5AC
:102060000197F1F79CA78BA729AD3AAD88E3B90199
:102070000E94420D80E090E0A0E8BFE38FA398A704
:10208000A9A7BAA76FA178A589A59AA520E030E0F5
:102090004AEF54E40E949C02DC01CB018BA39CA379
:1020A000ADA3BEA36BA17CA18DA19EA120E030E0D9
:1020B00040E85FE30E94F60388232CF481E090E07F
:1020C0009AA389A33FC06BA17CA18DA19EA120E012
:1020D0003FEF4FE757E40E94960318164CF56FA1A7
:1020E00078A589A59AA520E030E040E251E40E945D
:1020F0009C02DC01CB01BC01CD010E94C600DC01C9
:10210000CB019AA389A30FC088EC90E098A38F8F8E
:102110008F8D98A10197F1F798A38F8F89A19AA12C
:1021200001979AA389A389A19AA1009769F714C07E
:102130006BA17CA18DA19EA10E94C600DC01CB01F8
:102140009AA389A389A19AA19E8F8D8F8D8D9E8D33
:102150000197F1F79E8F8D8F29AD3AAD8EE0B901D1
:102160000E94420D80E090E0A0E8BFE3898F9A8F43
:10217000AB8FBC8F698D7A8D8B8D9C8D20E030E08C
:102180004AEF54E40E949C02DC01CB018D8B9E8BB4
:10219000AF8BB88F6D897E898F89988D20E030E074
:1021A00040E85FE30E94F60388232CF481E090E08E
:1021B0009C8B8B8B3FC06D897E898F89988D20E0A9
:1021C0003FEF4FE757E40E94960318164CF5698DD0
:1021D0007A8D8B8D9C8D20E030E040E251E40E94AE
:1021E0009C02DC01CB01BC01CD010E94C600DC01D8
:1021F000CB019C8B8B8B0FC088EC90E09A8B898BEA
:1022000089899A890197F1F79A8B898B8B899C89A7
:1022100001979C8B8B8B8B899C89009769F714C0E5
:102220006D897E898F89988D0E94C600DC01CB0163
:102230009C8B8B8B8B899C89988B8F878F859889BA
:102240000197F1F7988B8F8729AD3AAD81E0B901FD
:102250000E94420D80E090E0A0E0B0E48B879C8774
:10226000AD87BE876B857C858D859E8520E030E0BF
:102270004AEF54E40E949C02DC01CB018F839887D3
:10228000A987BA876F81788589859A8520E030E0B3
:1022900040E85FE30E94F60388232CF481E090E09D
:1022A0009E838D833FC06F81788589859A8520E0E4
:1022B0003FEF4FE757E40E94960318164CF56B85E5
:1022C0007C858D859E8520E030E040E251E40E94CF
:1022D0009C02DC01CB01BC01CD010E94C600DC01E7
:1022E000CB019E838D830FC088EC90E09C838B8311
:1022F0008B819C810197F1F79C838B838D819E81DB
:1023000001979E838D838D819E81009769F714C00C
:102310006F81788589859A850E94C600DC01CB0192
:102320009E838D838D819E819A83898389819A8101
:102330000197F1F79A838983EA960FB6F894DEBF86
:102340000FBECDBFCF91DF910895DF93CF9300D023
:1023500000D00F92CDB7DEB79B838A837D836C83D9
:10236000198211C08981282F30E08A819B81FC016C
:10237000E20FF31F80812C813D81B9010E946A0E1A
:1023800089818F5F89838981282F30E08A819B81B1
:10239000FC01E20FF31F8081882321F70F900F903B
:1023A0000F900F900F90CF91DF910895DF93CF930F
:1023B00000D000D000D0CDB7DEB79B838A836C837A
:1023C0004D8319828C81882319F48D81898309C0FA
:1023D0008C81813021F48D81805C898302C01E82D2
:1023E00009C0898180582A813B81B9010E94420D30
:1023F00081E08E838E8126960FB6F894DEBF0FBEE5
:10240000CDBFCF91DF9108950F931F93DF93CF93AB
:10241000CDB7DEB72B970FB6F894DEBF0FBECDBF9A
:1024200089877B876A878985882F90E0A0E0B0E064
:10243000BC01CD010E947A04DC01CB01BC01CD01BD
:1024400040E020E0FE0131968F010E941A152A8596
:102450003B85CE010196B9010E94A5112B960FB6BE
:10246000F894DEBF0FBECDBFCF91DF911F910F91CA
:102470000895DF93CF93CDB7DEB72B970FB6F894BF
:10248000DEBF0FBECDBF9F838E83688749873B87A2
:102490002A8787E08D831C821B8249C08885882F0C
:1024A00090E00896880F991F880F991F880F991F31
:1024B0002A853B85B9010E94420D1A82198227C0E4
:1024C0008B819C819C01220F331FC901880F991FAA
:1024D000880F991F880F991FAC01421B530B9A015B
:1024E0008E819F81280F391F89819A81880F991FBA
:1024F000F901E80FF91F808191812A853B85B90197
:102500000E946A0E89819A8101969A8389838D81BE
:10251000282F30E089819A818217930788F2888575
:102520008F5F88878B819C8101969C838B838985B3
:10253000282F30E08B819C818217930708F4AECF5F
:102540002B960FB6F894DEBF0FBECDBFCF91DF91B3
:102550000895DF93CF9300D000D0CDB7DEB7898345
:102560006A835C834B83898180582B813C81B901CC
:102570000E94420D2B813C818A81B9010E946A0E22
:102580000F900F900F900F90CF91DF910895DF93F0
:10259000CF9300D0CDB7DEB79A838983E981FA81E2
:1025A0008081E981FA819281692F41E00E94480887
:1025B000E981FA818081E981FA819381692F41E083
:1025C0000E944808E981FA818081E981FA81948139
:1025D000692F41E00E944808E981FA818081E98100
:1025E000FA819581692F41E00E944808E981FA81CA
:1025F0008181E981FA819681692F40E00E94480833
:10260000E981FA818181E981FA819781692F40E02E
:102610000E944808E981FA818181E981FA819085E7
:10262000692F40E00E944808E981FA818181E981AF
:10263000FA819185692F40E00E944808E981FA817A
:102640008181E981FA819681692F41E00E94A40984
:10265000E981FA818181E981FA819781692F41E0DD
:102660000E94A409E981FA818181E981FA8190853A
:10267000692F41E00E94A409E981FA818181E98101
:10268000FA819185692F41E00E94A409E981FA81CC
:102690008081E981FA819281692F41E00E94A40939
:1026A000E981FA818081E981FA819381692F41E092
:1026B0000E94A409E981FA818081E981FA819481EB
:1026C000692F41E00E94A409E981FA818081E981B2
:1026D000FA819581692F41E00E94A4090F900F9023
:1026E000CF91DF910895DF93CF93CDB7DEB7689791
:1026F0000FB6F894DEBF0FBECDBF9C8B8B8B7E8B4D
:102700006D8B198A188A1A8A1F86198ADCC01F865F
:10271000ED89FE898F858183EB89FC8980816989B8
:1027200040E00E94A409188ABDC0EB89FC89818120
:102730009E012E5E3F4F6889A9010E94000B8A8985
:10274000882309F0ACC080E090E0A0E7B1E48B877B
:102750009C87AD87BE876B857C858D859E8520E0B7
:1027600030E04AEF54E40E949C02DC01CB018F83ED
:102770009887A987BA876F81788589859A8520E0AF
:1027800030E040E85FE30E94F60388232CF481E008
:1027900090E09E838D833FC06F81788589859A857F
:1027A00020E03FEF4FE757E40E94960318164CF5E0
:1027B0006B857C858D859E8520E030E040E251E48C
:1027C0000E949C02DC01CB01BC01CD010E94C6002D
:1027D000DC01CB019E838D830FC088EC90E09C834D
:1027E0008B838B819C810197F1F79C838B838D81F7
:1027F0009E8101979E838D838D819E81009769F7CD
:1028000014C06F81788589859A850E94C600DC0195
:10281000CB019E838D838D819E819A83898389815B
:102820009A810197F1F79A838983EB89FC898181E9
:102830009E012E5E3F4F6889A9010E94000B8A8984
:10284000882349F58989482F50E08889282F30E06E
:10285000CA01880F991F880F991F820F931FFC01CF
:10286000E458FE4F808180939A0181E08F87ED8943
:10287000FE898F85818380919A01ED89FE8980830D
:102880000AC0EB89FC8981819E012E5E3F4F6889D9
:10289000A9010E94000B8A89882399F307C08889BF
:1028A0008F5F888B8889843008F43FCFEB89FC895F
:1028B0008081698941E00E94A4098F85813039F0C7
:1028C00089898F5F898B8989843008F420CF689645
:1028D0000FB6F894DEBF0FBECDBFCF91DF91089544
:1028E000DF93CF93CDB7DEB7ADE2B0E0EDE2F0E03D
:1028F000808180648C93ADE2B0E0EDE2F0E0808115
:1029000080618C93ADE2B0E0EDE2F0E08081886020
:102910008C93ADE2B0E0EDE2F0E0808184608C93D6
:10292000ADE2B0E0EDE2F0E0808181608C93ADE259
:10293000B0E0EDE2F0E080818D7F8C93AEE2B0E01C
:10294000EEE2F0E080818E7F8C93CF91DF9108954D
:10295000DF93CF930F92CDB7DEB78983EFE2F0E03C
:1029600089818083EEE2F0E080818823DCF7EFE26A
:10297000F0E080810F90CF91DF910895DF93CF93A6
:102980000F92CDB7DEB781E065E041E00E944808D4
:1029900081E066E040E00E94480881E067E041E0B5
:1029A0000E9448088CE891E00E94920F0E947014E7
:1029B00087E70E94A81489832CE831E08981B90156
:1029C0000E946A0EF5CF2F923F924F925F926F92C4
:1029D0007F928F929F92AF92BF92CF92DF92EF92AF
:1029E000FF920F931F93CF93DF93CDB7DEB7CA1B30
:1029F000DB0B0FB6F894DEBF0FBECDBF09942A885B
:102A0000398848885F846E847D848C849B84AA8402
:102A1000B984C884DF80EE80FD800C811B81AA818F
:102A2000B981CE0FD11D0FB6F894DEBF0FBECDBF5A
:102A3000ED010895EF92FF920F931F93F22FF02E66
:102A400047FD02C0E4E001C0E4E1242F332727FD65
:102A5000309537FF03C0309521953F4F4F2D512FB3
:102A60000F2FEE2E0E943B158F2D912F1F910F914E
:102A7000FF90EF900895A9E0B0E0E1E4F5E10C9457
:102A8000E7146A01122FA02EBE2C2BE3201718F496
:102A90002CE3922E02C0902E9394AE014F5F5F4FB5
:102AA00027E0092D0E949D16BC018981E82EFF2494
:102AB000C70189709070019711F4ADE209C0B1FEB1
:102AC00002C0ABE205C0B0FC02C0A0E001C0A0E2C1
:102AD000E3FE3BC0AA2311F423E001C024E0211748
:102AE00010F020E002C0121B212FEB2CB4FE02C01C
:102AF000322F0AC0F601322F80E202C0819331509A
:102B00003323E1F7C20ED11CAA2319F0F601A193D9
:102B10006F01F6013196E2FE05C09EE4D6019C935A
:102B200081E404C09EE6D6019C9381E611968C93C5
:102B300091833296DF01832F90E202C09D938150F2
:102B40008823E1F7E30FF11D40C0E2FE42C0AA2353
:102B500011F423E001C024E0211710F020E002C0AE
:102B6000121B212FEB2CB4FE02C0922F0AC0F601DB
:102B7000922F80E202C0819391509923E1F7C20E17
:102B8000D11CAA2319F0F601A1936F01F601319629
:102B9000E2FE08C089E4D6018C938EE411968C93F2
:102BA00086E407C089E6D6018C938EE611968C9355
:102BB00086E681833296DF01892F20E202C02D93C1
:102BC00081508823E1F7E90FF11D10822EEF3FEFCE
:102BD000AFC0161617061CF041E050E003C0AB0171
:102BE0004F5F5F4FAA2019F480E090E003C08A2D68
:102BF00090E0019620E030E0AA2311F021E030E0DF
:102C0000240F351F280F391F812F90E0281739070F
:102C100014F020E002C0121B212F4B2D50E0CA01FE
:102C200080719070B4FC0DC0B3FC0BC0F601322F64
:102C300040E202C0419331503323E1F7C20ED11C70
:102C400001C0322FAA2319F0F601A1936F01892B3D
:102C500011F0132F0AC0F601132F80E302C08193F5
:102C600011501123E1F7C30ED11C092D060FBA80B4
:102C700090E1892E912C8E209F20E4FE04C0F1E388
:102C8000BF1609F40150101614F001E003C009301A
:102C900008F008E09B0177FF02C020E030E0CB01A4
:102CA0000196821B930BFE013196E80FF91F8EE20D
:102CB000F82E3B01601A71088A2D90E044275527B1
:102CC000481B590B8FEF2F3F380719F4D601FD929F
:102CD0006D01621773072CF06216730614F480817D
:102CE00001C080E32150304031962417350724F08D
:102CF000D6018D936D01E6CF2617370749F4B5E36A
:102D0000BB1528F0BB1621F48114910409F481E36A
:102D1000F6018193D601812F90E202C09C938150ED
:102D200011968823D9F7E10FF11D108220E030E0E1
:102D3000C9012996EEE00C940315283008F027E02D
:102D40003327DA01990F311D87FD916000966105E7
:102D5000710539F432602E5F3D9330E32A95E1F737
:102D600008959F3F30F080387105610509F03C5FA0
:102D70003C5F3D93913008F08068911DDF93CF93C5
:102D80001F930F93FF92EF92192F987F9695E92F3B
:102D900096959695E90FFF27E255FF4F9927332720
:102DA000EE24FF24A701E70105900894079428F476
:102DB000360FE71EF81E491F511D660F771F881F2B
:102DC000991F0694A1F70590079428F4E70EF81EC2
:102DD000491F561FC11D770F881F991F661F069434
:102DE000A1F70590079428F4F80E491F561FC71F36
:102DF000D11D880F991F661F771F0694A1F70590B4
:102E0000079420F4490F561FC71FD81F990F661F3C
:102E1000771F881F0694A9F784911095177041F0C9
:102E2000D695C79557954795F794E7941A95C1F7A6
:102E3000E4E5F0E0689415901591359165919591D0
:102E400005907FE27395E118F10A430B560BC90B0D
:102E5000D009C0F7E10CF11E431F561FC91FD01D3A
:102E60007EF4703311F48A95E6CFE894015030F087
:102E7000080F0AF40027021708F4202F2395022FC9
:102E80007A3328F079E37D932A95E9F710C07D9392
:102E90002A9589F60694979567953795179517940F
:102EA000E118F10A430B560BC90BD00998F0239592
:102EB0007E9173957A3308F070E37C932013B8F712
:102EC0007E9170617D9330F0839571E37D9370E323
:102ED0002A95E1F71124EF90FF900F911F91CF9168
:0E2EE000DF91992787FD90950895F894FFCF14
:102EEE0000000000000000000001020203030303C3
:102EFE00040404040404040405050505050505057C
:102F0E00050505050505050506060606060606065B
:102F1E000606060606060606060606060606060643
:102F2E00060606060606060607070707070707072B
:102F3E000707070707070707070707070707070713
:102F4E000707070707070707070707070707070703
:102F5E0007070707070707070707070707070707F3
:102F6E0007070707070707070808080808080808DB
:102F7E0008080808080808080808080808080808C3
:102F8E0008080808080808080808080808080808B3
:102F9E0008080808080808080808080808080808A3
:102FAE000808080808080808080808080808080893
:102FBE000808080808080808080808080808080883
:102FCE000808080808080808080808080808080873
:102FDE000808080808080808080808080808080863
:102FEE0008080808080808083F065B4F666D7D074D
:102FFE007F6FC0F9A4B0999282F8809054534944DF
:10300E00010203040506070809002B3D030303050F
:04301E0004060000A4
:00000001FF
