:100000000C942A000C9434000C9434000C943400AA
:100010000C9434000C9434000C9434000C94340090
:100020000C9434000C9434000C9434000C94340080
:100030000C9434000C9434000C9434000C94340070
:100040000C9434000C9434000C9434000C94340060
:100050000C94340011241FBECFE5D8E0DEBFCDBF25
:100060000E9442010C9449010C940000DF93CF934D
:10007000CDB7DEB728970FB6F894DEBF0FBECDBF61
:1000800089836A834B838B81882309F077C08981B8
:10009000282F30E038872F838F8198858130910514
:1000A00059F12F813885223031052CF48F819885C4
:1000B000009769F060C02F8138852230310589F1C1
:1000C0008F8198858330910509F440C054C0AAE31C
:1000D000B0E0EAE3F0E08081482F8A81282F30E009
:1000E00081E090E0022E02C0880F991F0A94E2F787
:1000F000809584238C93BBC0A7E3B0E0E7E3F0E0F6
:100100008081482F8A81282F30E081E090E0022E04
:1001100002C0880F991F0A94E2F7809584238C937C
:10012000A6C0A4E3B0E0E4E3F0E08081482F8A8138
:10013000282F30E081E090E0022E02C0880F991F46
:100140000A94E2F7809584238C9391C0A1E3B0E0F8
:10015000E1E3F0E08081482F8A81282F30E081E0C0
:1001600090E0022E02C0880F991F0A94E2F7809552
:1001700084238C937CC091E09E837AC08B818130F4
:1001800009F072C08981282F30E03D832C838C8157
:100190009D818130910549F12C813D8122303105CD
:1001A0002CF48C819D81009761F05BC02C813D8196
:1001B0002230310571F18C819D8183309105E9F107
:1001C00050C0AAE3B0E0EAE3F0E08081482F8A81E2
:1001D000282F30E081E090E0022E02C0880F991FA6
:1001E0000A94E2F7842B8C9342C0A7E3B0E0E7E3E4
:1001F000F0E08081482F8A81282F30E081E090E074
:10020000022E02C0880F991F0A94E2F7842B8C9368
:100210002EC0A4E3B0E0E4E3F0E08081482F8A81BF
:10022000282F30E081E090E0022E02C0880F991F55
:100230000A94E2F7842B8C931AC0A1E3B0E0E1E3C7
:10024000F0E08081482F8A81282F30E081E090E023
:10025000022E02C0880F991F0A94E2F7842B8C9318
:1002600006C091E09E8304C022E02E8301C01E825E
:100270008E8128960FB6F894DEBF0FBECDBFCF910A
:10028000DF910895DF93CF93CDB7DEB7CF91DF91A4
:060290000895F894FFCF71
:00000001FF
